:0400000007EF1EF0F8
:1000080000C015F09EA0B7D09D909E90800ECF6E38
:100018008374040003011A510008D8A01A070401C8
:10002800EB510008D8A0EB07000E0601731902E196
:10003800000E721920E1000E681902E1000E67191E
:100048001AE1000E6A1902E1000E691914E1000EA6
:10005800751902E1000E74190EE1000EF71902E19C
:10006800000EF61908E1000EF91902E1000EF81960
:1000780002E1839201D08382FF0E731902E1FF0E21
:10008800721902E184820DD0000E731902E1000E8C
:10009800721902E1849205D08482010E725F000E0B
:1000A800735BFF0E681902E1FF0E671902E1848095
:1000B8000DD0000E681902E1000E671902E1849064
:1000C80005D08480010E675F000E685BFF0E6A1919
:1000D80002E1FF0E691902E181800DD0000E6A1954
:1000E80002E1000E691902E1819005D08180010EBC
:1000F800695F000E6A5BFF0E751902E1FF0E741945
:1001080002E181820DD0000E751902E1000E74190A
:1001180002E1819205D08182010E745F000E755B49
:10012800FF0EF71902E1FF0EF61902E181840DD0E6
:10013800000EF71902E1000EF61902E1819405D0CC
:100148008184010EF65F000EF75BFF0EF91902E1DC
:10015800FF0EF81902E181860DD0000EF91902E1AF
:10016800000EF81902E1819605D08186010EF85F2C
:0C017800000EF95B9D8015C000F0110026
:10018400C1CAE1FFC2CAE2FFC3CAE6FFC4CAE6FFAE
:02019400120057
:10019600E20E0A01C16F0E0EC26FBECAC3FABFCA13
:0A01A600C4FAEDDFC0CA61FF1200C9
:0601B000BECA61FF12004F
:1001B6007A0E0A01C16F0F0EC26FBECAC3FABFCA5A
:0E01C600C4FADDDF61CFC0FAC0CA00F012003B
:0E01D400BECAE9FFBFCAEAFFEECF00F012007C
:1001E200E20E0A01C16F0E0EC26FB0CAC3FAB1CAE3
:1001F200C4FAC7DFB451B5110DE0B2CAE9FFB3CA00
:10020200EAFFEECF61FFB24BB32B010EB45F000EDB
:06021200B55BF0D71200FD
:10021800B2CA00F0B3CA01F0010E0A01B25F000EC3
:10022800B35B0050011009E0B0CAE9FFB1CAEAFFA8
:0C023800EECF61FFB04BB12BEBD71200F2
:10024400B2CA04F0B3CA05F0B0CA02F0B1CA03F0EE
:10025400B4CA00F0B5CA01F0010E0A01B45F000E81
:10026400B55B005001100FE004C0E9FF05C0EAFFD0
:1002740002C0E1FF03C0E2FFEECFE6FF024A032A19
:10028400044A052AE5D7B0CA00F0B1CA01F0120049
:10029400AE0E0A01BE6F190EBF6FC06B7ADFAE0ED1
:1002A400B025006E190EB121016E00C0B0FA01C074
:1002B400B1FAE60EC16F0E0EC26F00C0C3FA01C0E0
:1002C400C4FA5EDFD286D20EBE6F0F0EBF6F80DF20
:1002D40000A601D0F8D7FD0EBE6F0E0EBF6F78DFFB
:1002E400060E0016005202E0B26B02D0010EB26F8D
:0602F400B2CA00F0120086
:1002FA000A01B251B025B46FB351B121B56F010EE5
:10030A00B45F000EB55BF00EC16F0E0EC26FB0CABD
:10031A00C3FAB1CAC4FA31DFF20EC16F0E0EC26F50
:10032A00B4CAC3FAB5CAC4FA28DF300ED212D20E42
:10033A00BE6F0F0EBF6F49DF00AA01D0F8D71200B7
:0E034A00B1CA61FF00000000B0CA61FF1200DE
:10035800B0CABEFAB1CABFFAB2CAC0FA18DFB3CA85
:06036800BEFA22DF1200C4
:10036E000A01BD6B010EB25F000EB35BB6530DE01A
:10037E00B351190802E1B251AD0807E2BD2BAD0E23
:10038E00B25DBB6F190EB359BC6FBD5305E0AD0E18
:10039E00B76F190EB86F04D0B2CAB7FAB3CAB8FAAB
:1003AE00B151B81902E1B751B0190DE1B0CABEFA98
:1003BE00B1CABFFAF9DE00C0C0FAB4CABEFAB5CAF5
:1003CE00BFFAE2DE30D0F00EC16F0E0EC26FB0CAB1
:1003DE00C3FAB1CAC4FACFDEF20EC16F0E0EC26FEF
:1003EE00BD5305E0AD0EB96F190EBA6F04D0B2CA87
:1003FE00B9FAB3CABAFAB9CAC3FABACAC4FABBDEF0
:10040E00F40EC16F0E0EC26FB4CAC3FAB5CAC4FAE7
:10041E00B2DED298D28AD20EBE6F0F0EBF6FD3DE6F
:10042E0000AA01D0F8D7BD531AE0B051B25D006EEC
:10043E00B151B359016EBB51005EBC51015A004A15
:10044E00012A0050B4270150B523010EBB5DB26FD7
:10045E00000EBC59B36FB06BB16BBD6B96D712006B
:0A046E0061CF01F001C000F01200A0
:100478000A01A551FF0A02E1FF0EA41909E07A0E4C
:10048800C16F0F0EC26FA4CAC3FAA5CAC4FA76DE3A
:10049800A6CA00F0A7CA01F0010EA65F000EA75B6E
:1004A8000050011009E0A2CAE1FFA3CAE2FF61CF30
:0A04B800E6FFA24BA32BECD71200C5
:1004C200A6CA01F0A7CA02F0010E0A01A65F000E39
:1004D200A75B000E021802E1000E01181FE0A2CA7B
:1004E200E9FFA3CAEAFFA4CAD9FFA5CADAFFEE5000
:1004F200DE180FE0A2CAE9FFA3CAEAFFA4CAD9FF25
:10050200A5CADAFFDE50EE5C006E016A000E015AE7
:1005120007D0A24BA32BA44BA52BD2D7006A016A0A
:020522001200C5
:10052400A5CA00F0A6CA01F0010E0A01A55F000EDB
:10053400A65B005001100FE0A2CAF6FFA3CAF7FFA2
:10054400A4CAF8FF0900F5CF61FF010EA227000E2F
:08055400A323A423E5D7120044
:10055C00AF0E0A01B06F190EB16FA2CAB2FAA3CADC
:10056C00B3FA060EB46F000EB56F35DE230EB06F06
:10057C00060EB16F060EB26F000EB36F47DE000EA3
:10058C00B06F080EB16FDBDE1C0EAA25AD6F000E2E
:10059C00AB21AE6F000EB06F450EB16FD0DEADCAA1
:1005AC00B0FAAECAB1FACBDE39C6B0FA3AC6B1FA75
:1005BC00C6DE0601394B3A2B0A01B06BB16BBFDEBC
:1005CC00110EB06F800EB16FBADEB06BB16BB7DECF
:1005DC00570EB06F060EB16F040EB26F000EB36FF4
:1005EC0015DEA4CAB0FAA5CAB1FA040EB26F000E99
:1005FC00B36F0CDE080EAA25AD6F000EAB21AE6FEB
:10060C00A6CAB0FAA7CAB1FA9ADEA8CAB0FAA9CAA1
:10061C00B1FA95DEADCAB0FAAECAB1FA90DEB06BE3
:10062C00B16B8DDEBD0EB06F190EB16F140EB26FC3
:10063C00000EB36F5CDEF60EBE6F0E0EBF6FC4DD28
:10064C0000C0AFFAF70EBE6F0E0EBF6FBDDD00C05F
:10065C00B2FAC70EB06F190EB16FAFCAB3FA76DE2D
:10066C00010EAD15AC6FD90EAA25BE6F190EAB21BC
:10067C00BF6FC06B8ADDC90EB06F190EB16FD10E92
:10068C00B26F190EB36FD90EAA25B46F190EAB2128
:10069C00B56FAC51B427000EB523B66B62DED90E24
:1006AC00AA25B06F190EAB21B16FAC51B027000E5B
:1006BC00B123080EB027000EB123B26B110EB36F2D
:1006CC0045DEAECABEFA6EDDADCABEFA6BDDD10E2A
:1006DC00B06F190EB16F0C0EAD25B26F000EAE21BE
:1006EC00B36FAC51B227000EB32301DEF60EBE6F12
:1006FC000E0EBF6F69DD00C0AFFAF70EBE6F0E0EA7
:10070C00BF6F62DD00C0B2FAD70EB06F190EB16FB9
:10071C00AFCAB3FA1BDE2A0EAA25B06F000EAB21AE
:06072C00B16FB2DD120006
:10073200A2CAB0FAA3CAB1FA570E0A01B26F060EE4
:10074200B36F040EB46F000EB56F7BDDA46BA451C2
:10075200030821E3A451A225026E000EA321036E19
:1007620002C0E9FF03C0EAFFEECF01F0530EE96ECB
:10077200060EEA6EA451E926D8B0EA2AFF0EEE1858
:10078200006E0150001202C0E1FF03C0E2FF00C090
:08079200E6FFA42BDCD71200E6
:10079A00F90E0A019D6F000E9E6FE20EC16F0E0EDA
:1007AA00C26FD90EC36F190EC46FE7DCA80EA26F11
:1007BA00530EA36F000EA46F0C0EA56F000EA66F4A
:1007CA00ACDE9A51030A0CE19B530AE0470EB06F64
:1007DA00060EB16F040EB26F000EB36F18DD08D0AB
:1007EA009C6B040E9C5D04E2BE6BDDDC9C2BF9D78E
:1007FA009C6B0C0E9C5D04E2BE6BD5DC9C2BF9D77E
:10080A00230EB06F060EB16F060EB26F000EB36FF5
:10081A00FEDC9C6BCA0E9C5D04E2BE6BC4DC9C2BA6
:10082A00F9D7B40EA26F530EA36F000EA46F060E73
:10083A00A56F000EA66F71DE9ACABEFAB4DC9A5191
:10084A00030A15E19B5313E1360EBE6FACDC040EAE
:10085A00BE6FA9DC2D0EB06F060EB16F040EB26F1B
:10086A00000EB36FD4DC060E9D27000E9E23BA0E2F
:10087A00A26F530EA36F000EA46F050EA56F000E94
:10088A00A66F4BDE9A51030A1DE19B531BE1320E00
:10089A00BE6F89DC040EBE6F86DC9C6B040E9C5D09
:1008AA000DE2470EE96E060EEA6E9C51E926D8B0B3
:1008BA00EA2AEECFBEFA77DC9C2BF0D7060E9D27EC
:1008CA00000E9E23FF0EBE6F6EDC8B0EA26F010E12
:1008DA00A36F8B0EA46F010EA56F440EA66F000EB8
:1008EA00A76F430EA86F000EA96F9DCAAAFA9ECAE7
:0608FA00ABFA2FDE120034
:100900009ACA02F09BCA03F09DCA00F09ECA01F089
:10091000010E0A019D5F000E9E5B0050011009E070
:1009200002C0E1FF03C0E2FF9CCAE6FF024A032ABD
:0C093000EBD79ACA00F09BCA01F012003D
:10093C000A019C6B3C0E06014C6F000E4D6F4E6F06
:10094C004F6F8FDD00C09AFA0050020AD8A40AD16A
:10095C000A019B6B0F0E9B5D03E283DD9B2BFAD789
:10096C00470EA26F060EA36FFF0EA46FFF0EA56FAE
:10097C00040EA66F000EA76F79DD9B6B080E9B5DB6
:10098C0003E26FDD9B2BFAD79B6B060E9B5D11E28E
:10099C0068DD00C09AFA230ED96E060EDA6E9B51F2
:1009AC00D926D8B0DA2A0050DE1801E006D19B2BEC
:1009BC00ECD79B6BCE0E9B5D03E253DD9B2BFAD7E2
:1009CC009D6B4FDD00C09AFAAFD04BDD00C09AFA98
:1009DC000050010A04E145DD00C09CFA01D0EDD0C5
:1009EC00BDD03FDD00C09AFA0050040A0EE11F0E84
:1009FC00A26F060EA36FFF0EA46FFF0EA56F040E61
:100A0C00A66F000EA76F32DD01D0D7D0A7D029DD9D
:100A1C0000C09AFA040E005C0EE3290EA26F060EBB
:100A2C00A36FFF0EA46FFF0EA56F040EA66F000E32
:100A3C00A76F1CDD01D0C1D0040E9A5F9ACA00F0DA
:100A4C009A07005202E00DDDF9D788D00ADD00C00C
:100A5C009AFA040E005C0EE3310EA26F060EA36F21
:100A6C00FF0EA46FFF0EA56F040EA66F000EA76FEE
:100A7C00FDDC01D0A2D0040E9A5F9ACA00F09A074E
:100A8C00005202E0EEDCF9D769D0EBDC00C09AFA38
:100A9C000050040A0EE19E0EA26F0A0EA36FFF0E09
:100AAC00A46FFF0EA56F040EA66F000EA76FDEDC01
:100ABC0001D083D053D0010E9D6F50D0D2DC00C03A
:100ACC009AFA0050040A22E14C0EA26F060EA36F94
:100ADC00FF0EA46FFF0EA56F040EA66F000EA76F7E
:100AEC00C5DC06014F51000808E14E51000805E134
:100AFC004D51070802E14C51080807E2080E4C5F03
:100B0C00070E4D5B000E4E5B4F5B01D056D026D0CE
:100B1C00A8DC00C09AFA9ACA00F00A019A0700529F
:100B2C0002E09FDCF8D71AD09A51350AD8B44DD7C9
:100B3C009A51010AD8B455D79A51030AD8B467D739
:100B4C009A51060AD8B482D79A51360A9EE09A5125
:100B5C00FF0AB1E09A51330AB1E0DAD70A019D538A
:100B6C00D8B42FD70A019C51020A0FE12D0EB06F99
:100B7C00060EB16F9E0EB26F0A0EB36F040EB46FF9
:100B8C00000EB56F22EC01F015D02D0EA26F060EE3
:100B9C00A36F9E0EA46F0A0EA56F040EA66F000E17
:100BAC00A76F89DC000E011802E1000E001802E0AC
:0E0BBC000A019C6B9CCA00F001D0006A120076
:100BCA00530E0A01B06F060EB16F9ACAB2FA9BCAE7
:100BDA00B3FA040EB46F000EB56F22EC01F05B0E8F
:100BEA00B06F060EB16F9CCAB2FA9DCAB3FA040E70
:100BFA00B46F000EB56F22EC01F0630EB06F060EF3
:100C0A00B16F9ECAB2FA9FCAB3FA040EB46F000E4D
:100C1A00B56F22EC01F05F0EA26F060EA36F84DDA2
:020C2A001200B6
:100C2C000B6A0A6A096A00500402F4CF09F0F3CF88
:100C3C0008F001500502F4CF0BF0F3CF0AF000508E
:100C4C000502F3500926F4500A22E86A0B220150DF
:100C5C000402F3500926F4500A22E86A0B2208C059
:100C6C0000F009C001F00AC002F00BC003F0120042
:100C7C00B50E0A01B06F190EB16FBB0EB26F190E23
:100C8C00B36FAF0EB46F190EB56FB66BB7EC01F056
:100C9C00B50EB06F190EB16F230EB26F060EB36F97
:0E0CAC00060EB46F000EB56FF1EC00F01200F2
:100CBA007A0E0A01BE6F0F0EBF6FEAEC00F000C099
:100CCA0091FA7B0EBE6F0F0EBF6FEAEC00F000C008
:100CDA0092FA7A0EC16F0F0EC26F8CCAC3FA8DCA0E
:100CEA00C4FAC2EC00F090530CE08ECAD9FF8FCA46
:100CFA00DAFF6150DE1801E004D08E4B8F2B90078B
:100D0A00F2D77A0EC16F0F0EC26F91CAC3FA92CA96
:0C0D1A00C4FAC2EC00F090CA00F0120015
:100D2600B5D0570E0A019A6F060E9B6F9C6B040E88
:100D36009D6F000E9E6FE1DD010E9A6F9B6B2ADDA3
:100D4600CDC13BF6CEC13CF6CFC13DF6D0C13EF695
:100D5600030E0101D16FADD0050E06013B25016ED4
:100D6600000E3C21026E000E3D21036E000E3E2158
:100D7600046E0101D051045C08E1CF51035C05E12A
:100D8600CE51025C02E1CD51015C02E2020ED16F4E
:100D9600D2DD0050020A04E1040E0101D16F01D038
:100DA60088D0030E0A019A6F47C29BFAF3DCCDC1C5
:100DB6003BF6CEC13CF6CFC13DF6D0C13EF6050EA0
:100DC6000101D16F76D0B7DD00C08CFA0050060A5B
:100DD60004E1040E0101D16F2ED00A018C51050ADF
:100DE6002AE1CDC13BF6CEC13CF6CFC13DF6D0C11E
:100DF6003EF6060E0101D16F570E0A01B06F060EC0
:100E0600B16F470EB26F060EB36F040EB46F000ECD
:100E1600B56F22EC01F01F0E9A6F060E9B6F290E1E
:100E26009C6F060E9D6F310E9E6F060E9F6FCADE7B
:100E36000201476B3ED03DD0010E06013B25016EF7
:100E4600000E3C21026E000E3D21036E000E3E2177
:100E5600046E04500101D05D08E10350CF5D05E149
:100E66000250CE5D02E10150CD5D0FE3010E060199
:100E76004C5F000E4D5B4E5B4F5BCDC13BF6CEC16A
:100E86003CF6CFC13DF6D0C13EF613D00101D1519B
:100E9600020AD8B446D7D151030AD8B45DD7D15186
:100EA600040AD8B47ED7D151050A8DE0D151060A7D
:040EB600C3E0120083
:100EBA0037EC02F037EC02F037EC02F000C08DFAA2
:100ECA0037EC02F000C08CFA37EC02F000C08FFA5F
:100EDA0037EC02F000C08EFA37EC02F000C091FA4B
:100EEA0037EC02F000C090FA37EC02F037EC02F06F
:100EFA0037EC02F037EC02F08ECA00F08FCA01F02C
:100F0A00010E0A018E5F000E8F5B005001100EE089
:100F1A0037EC02F0005201E0FBD737EC02F037EC75
:100F2A0002F037EC02F037EC02F0E6D70A0190CA79
:100F3A0000F091CA01F0010E905F000E915B005023
:100F4A00011046E037EC02F037EC02F037EC02F021
:100F5A0000C095FA37EC02F000C094FA37EC02F0C0
:100F6A0037EC02F037EC02F037EC02F037EC02F023
:100F7A0037EC02F037EC02F000C093FA37EC02F0DB
:100F8A0000C092FA000E951902E1010E941911E1BE
:100F9A0037EC02F000C043F637EC02F000C044F62A
:100FAA0037EC02F000C045F637EC02F000C046F616
:100FBA000FD092CA00F093CA01F0010E925F000EA0
:100FCA00935B0050011003E037EC02F0F2D7AED782
:020FDA00120003
:100FDC000A018D51190802E18C51AD0804E2AE0EE4
:100FEC008C5F190E8D5B7A0EC16F0F0EC26F8CCA9F
:0C0FFC00C3FA8DCAC4FAC2EC00F0120067
:10100800C90E0A01B06F190EB16FCD0EB26F190E6D
:10101800B36FCD0EB46F190EB56FB66BB7EC01F0A8
:10102800C90EB06F190EB16F570EB26F060EB36FBF
:0E103800040EB46F000EB56FF1EC00F0120064
:101046000A01966B976B96CA00F097CA01F01200D8
:101056000A01966B976B9151C30A02E1820E9019B1
:1010660003E0006A016A63D092CA18F393CA19F3BF
:101076000801EE6BEF6B800EEF19006E800E010A11
:10108600005C02E1000EEE5D0AE2EE0EEE25E16E78
:10109600040EEF21E26EE66AEE4BEF2BECD7010E63
:1010A6000401EC6F8CCAE9FF8DCAEAFFEECF14F398
:1010B600010E0A018C25E96E000E8D21EA6EEECF37
:1010C60015F3020E8C25E96E000E8D21EA6EEECF29
:1010D60016F3030E8C25E96E000E8D21EA6EEECF17
:1010E60017F30801EE6BEF6B800EEF19006E800EA2
:1010F600010A005C02E1000EEE5D15E2EE0EEE2541
:101106000A01986F040E0801EF210A01996F37EC66
:1011160002F098CAE1FF99CAE2FF00C0E6FF0801A3
:10112600EE4BEF2BE1D796CA00F097CA01F01200FA
:10113600C40E0A01BE6F190EBF6FDBEC00F000C0D3
:101146005FFADBD0D50E8C6F190E8D6F570E8E6F32
:10115600060E8F6F040E906FADDD0050000A49E158
:10116600C40EBE6F190EBF6F020EC06FCBEC00F03F
:1011760082DDCB0EB06F190EB16FCF0EB26F190EA6
:10118600B36FD50EB46F190EB56FB66BB7EC01F031
:10119600CB0EB06F190EB16F570EB26F060EB36F4E
:1011A600040EB46F000EB56FF1EC00F0C50EB06F13
:1011B600190EB16FCB0EB26F190EB36FCF0EB46F9F
:1011C600190EB56FB66BB7EC01F0C50EB06F190E00
:1011D600B16F230EB26F060EB36F060EB46F000E1C
:1011E600B56FF1EC00F03C0EB06F000EB16F4AEC3B
:1011F60001F08BD0AF0E8C6F190E8D6F230E8E6F94
:10120600060E8F6F060E906F55DD0050000A74E1D2
:10121600CB0E8C6F190E8D6FF0C58EFAF1C58FFA55
:10122600040E906F47DD0050000A66E10F0E006E57
:10123600000E016E91C104F0000E056EF4DCF20E94
:101246000024A26F050E0120A36F090EA227000E2F
:10125600A323C50EA46F190EA56F060EA66F000E6A
:10126600A76F3CEC02F00F0E006E000E016E91C1EE
:1012760004F0000E056ED7DCF20E0024B06F050EEA
:101286000120B16F050EB027000EB123F0C5B2FAEA
:10129600F1C5B3FA040EB46F000EB56F22EC01F07F
:1012A6000F0E006E000E016E91C104F0000E056E69
:1012B600BADCF20E0024E16E050E0120E26E010E8C
:1012C600E66E0F0E006E000E016E91C104F0000E68
:1012D600056EA9DCF20E0026050E0122010E002481
:1012E600E16E000E0120E26ECDC1E6FFCEC1E6FF43
:1012F600CFC1E6FFD0C1E6FF08D05F51010AD8B4DE
:0C13060021D75F51020AD8B475D712003D
:1013120062CABEFA63CABFFADBEC00F000C06DFA23
:1013220037EC02F000C06CFA37EC02F000C06BFA46
:1013320037EC02F000C06AFA000E6B1902E1000EEF
:101342006A1901E185D037EC02F000C06FFA37EC80
:1013520002F000C06EFA700EA26F0A0EA36FC90EE1
:10136200A46F190EA56F040EA66F000EA76F3CECBA
:1013720002F0E20EC16F0E0EC26F080E6225C36F3D
:10138200000E6321C46FC2EC00F00E0E5F258C6F5D
:10139200000E60218D6F61518C27000E8D23080E87
:1013A2008C27000E8D2319DE000E6D1902E1350E19
:1013B2006C1902E181DD4CD0000E6B1902E1440E82
:1013C2006A1902E1AFDC44D0700E0A018C6F0A0E7A
:1013D2008D6F6CCA8EFA6DCA8FFA6ACA90FA6BCA9E
:1013E20091FA080E6E5D926F000E6F59936F520E56
:1013F200946F060E956F2EDE00C06EFA01C06FFA72
:101402000050011025E0640E0A01A26F0A0EA36FBC
:10141200B50EA46F190EA56F060EA66F000EA76F6C
:101422003CEC02F0640EA26F0A0EA36F700EA46F62
:101432000A0EA56F6ACAA6FA6BCAA7FA6CCAA8FAFC
:101442006DCAA9FA6ECAAAFA6FCAABFAAEEC02F07A
:02145200120086
:1014540063CABEFA64CABFFADBEC00F000C073FAD8
:1014640037EC02F000C072FA37EC02F000C071FAF7
:1014740037EC02F000C070FA786B7D6B010E7E6F62
:101484007B6B7C6B0C0E6325BE6F000E6421BF6FFB
:10149400DBEC00F000C076FA000E776F7633769FAF
:1014A4007633769F000E776FFC0E7617FF0E771754
:1014B400870EA26F0A0EA36FC90EA46F190EA56F33
:1014C400040EA66F000EA76F3CEC02F00D0E632510
:1014D400BE6F000E6421BF6FDBEC00F03F0E001402
:1014E400746F756B000E7517000E756F0E0E060186
:1014F400505D0A01796F000E060151590A017A6F95
:101504006151795F62517A5B7651795F77517A5B89
:10151400020E6325BE6F000E6421BF6FDBEC00F08A
:1015240000C0C0FA63CABEFA64CABFFACBEC00F0CA
:10153400030E6325BE6F000E6421BF6FDBEC00F069
:1015440000C0BEFAD8EC00F072CAB0FA73CAB1FA9D
:10155400A5EC01F0040E6325BE6F000E6421BF6F7D
:10156400DBEC00F000C082FA37EC02F000C081FA34
:1015740037EC02F000C080FA37EC02F000C07FFACA
:1015840037EC02F000C086FA37EC02F000C085FAAE
:1015940037EC02F000C084FA37EC02F000C083FAA2
:1015A400000E751902E1020E741942E1010E7F2545
:1015B400006E000E8021016E000E8121026E000E6D
:1015C4008221036E00C083FA01C084FA02C085FA46
:1015D40003C086FA120E746F000E756FEC0EBE6FA8
:1015E4000E0EBF6FEAEC00F000C07FFAED0EBE6F86
:1015F4000E0EBF6FEAEC00F000C080FA7A0EBE6FE8
:101604000F0EBF6FEAEC00F000C081FA7B0EBE6FD4
:101614000F0EBF6FEAEC00F000C082FA782B180EB0
:10162400766F000E776F7B6B7C6B0201456B70D01D
:10163400000E0A01751902E1180E74192FE17FCA10
:1016440065FA80CA66FA81CA67FA82CA68FA83CAE6
:101654007FFA84CA80FA85CA81FA86CA82FA7951E5
:101664006525006E7A516621016E000E6721026EB7
:10167400000E6821036E00C083FA01C084FA02C020
:1016840085FA03C086FA100E746F000E756F782BFE
:10169400140E766F000E776F7D2B3AD0000E7519FD
:1016A40002E1110E741934E17FCA69FA80CA6AFA38
:1016B40081CA6BFA82CA6CFA83CA7FFA84CA80FA36
:1016C40085CA81FA86CA82FA010E6925006E000E67
:1016D4006A21016E000E6B21026E000E6C21036EF6
:1016E40000C083FA01C084FA02C085FA03C086FAF6
:1016F400100E746F000E756F782B140E766F000E3B
:10170400776F7B6B7C6B0201465302E1452B466B82
:101714000A017853D8B4C7D10A01040E6325B06F07
:10172400000E6421B16F82CAB2FA81CAB3FAACEC7A
:1017340001F080CABEFAD8EC00F07FCABEFAD8EC39
:1017440000F086CABEFAD8EC00F085CABEFAD8EC1E
:1017540000F084CABEFAD8EC00F083CABEFAD8EC12
:1017640000F00C0E6325BE6F000E6421BF6FDBEC2E
:1017740000F00F0E0014C06F76CA00F0003600901F
:10178400003600900050C0130C0E6325BE6F000E8F
:101794006421BF6FCBEC00F00D0E6325BE6F000E0D
:1017A4006421BF6FDBEC00F0C00E0014C06F7451F5
:1017B400C0130D0E6325BE6F000E6421BF6FCBEC0A
:1017C40000F0000E751902E1120E741920E10E0EDC
:1017D4006325B06F000E6421B16F050EB26FEE0E7B
:1017E400B36FACEC01F0140E6325B06F000E6421EE
:1017F400B16F020EB26F040EB36FACEC01F0050EC4
:10180400BE6FD8EC00F0780EBE6FD8EC00F06151DA
:101814007B25796F62517C217A6F765179277751D4
:101824007A237E5304E03EEC06F004EC08F0BF0E8D
:10183400B06F190EB16F7ACAB2FA79CAB3FAACECC6
:1018440001F0C70EB06F190EB16FB26BB36BACEC95
:1018540001F0BD0EB06F190EB16F61CAB2FA62CA5F
:10186400B3FA7DEC01F0F60EBE6F0E0EBF6FEAEC1C
:1018740000F000C08BFAF70EBE6F0E0EBF6FEAECDD
:1018840000F000C0B2FAC70EB06F190EB16F8BCA68
:10189400B3FAACEC01F0BD0E79256E6F190E7A2106
:1018A4006F6F100E6325B06F000E6421B16FB26BC1
:1018B400B36BACEC01F0010E79156D6F6ECABEFA14
:1018C4006FCABFFAC06BCBEC00F0C90EB06F190E33
:1018D400B16FD10EB26F190EB36F6D516E25B46F27
:1018E400000E6F21B56FB66BB7EC01F0080E6E25D4
:1018F400B06F000E6F21B16F6D51B027000EB12390
:10190400B26B060EB36FACEC01F00A0E6E25B06F2D
:10191400000E6F21B16F6D51B027000EB1237B51C2
:101924007625036E7C517721046E04C000F0016AB1
:1019340000C0B2FA03C0B3FAACEC01F063CAB0FA67
:1019440064CAB1FA7B517625B26F7C517721B36FAB
:101954000C0EB227000EB3236D51B227000EB32331
:101964007DEC01F0F60EBE6F0E0EBF6FEAEC00F0D8
:1019740000C08BFAF70EBE6F0E0EBF6FEAEC00F0DC
:1019840000C0B2FA100E6325B06F000E6421B16F6F
:101994008BCAB3FAACEC01F00E0E7925B06F000ED1
:1019A4007A21B16F4AEC01F07D5353E0100E746F4D
:1019B400000E756F7D6B7E6BE20EC16F0E0EC26FF3
:1019C40076516325C36F77516421C46FC2EC00F074
:1019D4000E0E5F258C6F000E60218D6F61518C2778
:1019E40062518D2376518C2777518D23EEEC07F0CD
:1019F4000201452B870E0A018C6F0A0E8D6F72CA85
:101A04008EFA73CA8FFA70CA90FA71CA91FA0E0EDE
:101A14000601505D0A01926F000E060151590A0138
:101A2400936F6151925F6251935B7651925F7751EC
:101A3400935B520E946F060E956F23EC08F000C072
:101A44007BFA01C07CFA060152B102D00201456B57
:101A540063D60201455327E00A017B517F25006EBE
:101A64007C518021016E000E8121026E000E8221C4
:101A7400036E00C07FFA01C080FA02C081FA03C07D
:101A840082FA110E746F000E756F0201456B0A0124
:101A94007E6B140E766F000E776F7B6B7C6B010E82
:081AA4000201466F39D6120061
:101AAC000A015C6B0601528152937A0E0A01C16FD6
:101ABC000F0EC26F9BC1C3FA9CC1C4FAC2EC00F0FA
:101ACC0061CF9BF10000000061CF9CF10000000091
:101ADC0061CF50F60000000061CF51F6000000000D
:101AEC0061CF5AFA0000000061CF5BFA00000000E1
:101AFC00040E0601505F000E515B01019C51190848
:101B0C0002E19B51AD0810E39BB10ED00A015BBF03
:101B1C000BD006015151050802E15051EE0804E3C7
:101B2C000A015AAF01D003D0010E006ECDD10A01CB
:101B3C007A0EBE6F0F0EBF6FEAEC00F000C058FAC1
:101B4C007B0EBE6F0F0EBF6FEAEC00F000C059FAAF
:101B5C0058CAB0FA59CAB1FA060150510A015825AF
:101B6C00B26F060151510A015921B36FAF0EB46F18
:101B7C00190EB56F010EB66FB7EC01F0BB0EBE6F50
:101B8C00190EBF6FDBEC00F000C05BFA37EC02F013
:101B9C0000C05AFA5B51080A02E1060E5A1912E10A
:101BAC00BD0E8C6F190E8D6F9D0E8E6F010E8F6F8B
:101BBC00070E906F5DEC06F00050000A02E19BEC02
:101BCC0008F054D15B51080A02E1000E5A19D8A44E
:101BDC004AD1CD0E8C6F190E8D6F5F0E8E6F060E67
:101BEC008F6F040E906F5DEC06F0005202E106015F
:101BFC005283CD0E0A018C6F190E8D6F8B0E8E6F6A
:101C0C00010E8F6F040E906F5DEC06F0005202E136
:101C1C0006015283CD0E0A018C6F190E8D6F570E73
:101C2C008E6F060E8F6F040E906F5DEC06F00052F7
:101C3C0007E0060152B304D0020E0A015C6F12D108
:101C4C000A01BD0EBE6F190EBF6FDBEC00F0F00E7B
:101C5C000014016E0150400A03E0030E5C6F02D1C8
:101C6C00BD0EBE6F190EBF6FDBEC00F000C056FA54
:101C7C00000E576F0F0E5617000E5717563756910A
:101C8C005737563756915737C30EBE6F190EBF6F65
:101C9C00DBEC00F0BF0E0014016E0150000AD8A45A
:101CAC00E1D0C40EBE6F190EBF6FDBEC00F000501C
:101CBC00000AD8A4D7D0BD0E5625546F190E572143
:101CCC00556FC60EBE6F190EBF6FDBEC00F000C077
:101CDC0053FA0050010AD8A489D054CABEFA55CA86
:101CEC00BFFADBEC00F00050080AD8A47ED0010E3D
:101CFC005425BE6F000E5521BF6FDBEC00F0005079
:101D0C00000A73E154CABEFA55CABFFAC06BCBECD9
:101D1C0000F03EEC06F004EC08F0C70EB06F190EA4
:101D2C00B16FB26BB36BACEC01F0BD0EB06F190EB2
:101D3C00B16F56CAB2FA57CAB3FA7DEC01F0F60E7F
:101D4C00BE6F0E0EBF6FEAEC00F000C05DFAF70E2E
:101D5C00BE6F0E0EBF6FEAEC00F000C0B2FAC70EF9
:101D6C00B06F190EB16F5DCAB3FAACEC01F0020E94
:101D7C005425B06F000E5521B16FB26BB36BACEC48
:101D8C0001F054CAB0FA55CAB1FA56510601505D69
:101D9C000A01B26F5751060151590A01B36F0E0E69
:101DAC00B25F000EB35B7DEC01F0F60EBE6F0E0E53
:101DBC00BF6FEAEC00F000C05DFAF70EBE6F0E0EBE
:101DCC00BF6FEAEC00F000C0B2FA020E5425B06FFF
:101DDC00000E5521B16F5DCAB3FAACEC01F050C6E0
:101DEC00B0FA51C6B1FA4AEC01F03CD05351110A89
:101DFC000DE158CA5FFA59CA60FA56CA61FA54CA58
:101E0C0062FA55CA63FA89EC09F02CD00A015351D5
:101E1C00060A28E1100E5825BE6F000E5921BF6F1F
:101E2C00DBEC00F000C05EFA5D6B37EC02F00050AA
:101E3C005D250601506F000E0A015E210601516FEF
:101E4C000E0E5027000E512358CA5FFA59CA60FA79
:101E5C0056CA61FA57CA62FA54CA63FA55CA64FA86
:101E6C002AEC0AF003D0040E0A015C6F0E01FE8D01
:101E7C00010E01019B5D016E000E9C59026E025019
:101E8C00190802E10150AD080CE2EC0E0A01C16F19
:101E9C000E0EC26FAD0EC36F190EC46FC2EC00F004
:101EAC0011D00A01EC0EC16F0E0EC26F010E0101B2
:101EBC009B5D0A01C36F000E01019C590A01C46F9E
:0A1ECC00C2EC00F05CCA00F0120046
:101ED600050E0C6E090E0D6E0D2EFED70C2EFCD7C0
:021EE6001200E8
:101EE8000A01526B60AC03D0DDDD00C052FA52CA61
:041EF80000F01200E4
:101EFC000A01526BC80E525D04E2E7DFE6DF522B9B
:041F0C00F9D71200EF
:101F1000086A096A100E0C6E01340836093604503E
:101F2000085E0550D8A0053C095ED8B007D0045023
:101F300008260550D8B0053C0926D8900036013651
:061F40000C2EEAD712008E
:101F460046CAA2FA47CAA3FA8B0E0A01A46F010E6B
:101F5600A56F040EA66F000EA76F61EC02F0000ECF
:101F6600011802E1000E001805E18B0E006E010E4D
:101F7600016E1DD246CAA2FA47CAA3FA5F0E0A012B
:101F8600A46F060EA56F040EA66F000EA76F61EC78
:101F960002F0000E011802E1000E001805E18B0E9A
:101FA600006E010E016E03D20A01496B040E495DF3
:101FB6003AE24E0EE16E0A0EE26E4951E126D8B0C3
:101FC600E22A49514625E96E000E4721EA6E570E70
:101FD600D96E060EDA6E4951D926D8B0DA2ADE5005
:101FE600EE18006E00C0E6FF4E0E016E0A0E026E7F
:101FF60049510126D8B0022A530ED96E060EDA6E62
:102006004951D926D8B0DA2A01C0E9FF02C0EAFF51
:10201600DE50EE14006E01C0E1FF02C0E2FF00C018
:10202600E6FF492BC3D74E0EA26F0A0EA36F860E8C
:10203600A46F010EA56F040EA66F000EA76F61ECCC
:1020460002F0000E011802E1000E001806E05B0E19
:102056000501F06F060EF16F04D046CAF0F547CAC7
:10206600F1F5FF0E0A014A6FFF0E4B6FFF0E4C6F24
:10207600FF0E4D6F496B030E495DD8B0F2D00F0EBF
:10208600006E000E016E49CA04F0000E056E16ECD5
:1020960006F0F20E0026050E0122010E0024E96E5E
:1020A600000E0120EA6EE80EEE24016E030EEE200D
:1020B600026E000EEE20036E000EEE20046E01018D
:1020C600D051045C08E1CF51035C05E1CE51025CBE
:1020D60002E1CD51015C2BE20F0E006E000E016E87
:1020E60049CA04F0000E056E16EC06F0F20E002644
:1020F600050E0122010E0024E16E000E0120E26EA3
:10210600E66AE66AE66AE66A0F0E006E000E016E81
:1021160049CA04F0000E056E16EC06F0F20E002415
:10212600E16E050E0120E26EE66A49CA91F10F0ED4
:10213600006E000E016E49CA04F0000E056E16EC24
:1021460006F0F20E0024E96E050E0120EA6EEECFCF
:1021560000F0005238E00F0E006E000E016E49CA04
:1021660004F0000E056E16EC06F0F20E00240A01CD
:10217600A26F050E0120A36F050EA227000EA32352
:10218600F0C5A4FAF1C5A5FA040EA66F000EA76F56
:1021960061EC02F0000E011802E1000E001813E1D6
:1021A6000F0E006E000E016E49CA04F0000E056E99
:1021B60016EC06F0F20E0026050E0122090E002688
:1021C600000E0122F4D00F0E006E000E016E49CAF9
:1021D60004F0000E056E16EC06F0F20E0026050E53
:1021E6000122010E0024E96E000E0120EA6EEECFF8
:1021F60001F0EECF02F0EECF03F0EECF04F00A01CD
:102206004D51045C08E14C51035C05E14B51025C05
:1022160002E14A51015C23E20F0E006E000E016ED0
:1022260049CA04F0000E056E16EC06F0F20E002602
:10223600050E0122010E0024E96E000E0120EA6E51
:10224600EECF4AFAEECF4BFAEECF4CFAEECF4DFA7E
:1022560000C0E1FF01C0E2FFE66A49CA91F1492BDD
:102266000AD7AF0EB06F190EB16F8B0EB26F010E9B
:10227600B36F060EB46F000EB56FF1EC00F0230ECF
:10228600B06F060EB16F060EB26F000EB36F0CEC98
:1022960001F0060EB06F080EB16FA5EC01F0920EBC
:1022A600B06F010EB16F080EB26F000EB36F0CEC7B
:1022B60001F0230EB06F060EB16F060EB26F000E60
:1022C600B36F0CEC01F0570EB06F060EB16F040E33
:1022D600B26F000EB36F0CEC01F0A50EB06F010EDD
:1022E600B16F060EB26F000EB36F0CEC01F0F0C5C5
:1022F600B0FAF1C5B1FA040EB26F000EB36F0CEC72
:1023060001F02A0EB06F000EB16F4AEC01F0CDC19C
:102316004AFACEC14BFACFC14CFAD0C14DFA0A01E6
:1023260048514A25016E000E4B21026E000E4C21CB
:10233600036E000E4D21046E04500101D05D08E1CC
:102346000350CF5D05E10250CE5D02E10150CD5D47
:102356002AE2C7DD0F0E006E000E016E91C104F079
:10236600000E056E16EC06F0F20E0024E96E050E60
:102376000120EA6EEECF01F00150010A13E10F0EC3
:10238600006E000E016E91C104F0000E056E16EC93
:1023960006F0F20E0026050E0122090E0026000E9A
:1023A600012205D0BCD7000E006E000E016E120091
:1023B600086A080E0C6E003408360450085ED8B061
:0E23C60002D00826D89000360C2EF5D7120053
:1023D40046CAB4FE91DD48CAB6FE8EDD47CAB7FED2
:0C23E4008BDD0E018AA101D0FCD7120095
:1023F0000A014A6B050E4A5D0AE24A514825E16E20
:10240000000E4921E26E200EE66E4A2BF3D74A51A8
:102410004825E16E000E4921E26EE66A4A074A51FC
:1024200048254B6F000E49214C6F0A0E046E000EBA
:10243000056E46CA00F047CA01F06ADD08C000F028
:1024400009C001F0300E00264BCAE1FF4CCAE2FF82
:1024500000C0E6FF0A0E046E000E056E46CA00F0CC
:1024600047CA01F055DD00C046FA01C047FA000E28
:10247000011802E1000E001801E102D04A07CFD78F
:02248000120048
:1024820046CAB4FE3ADDFF0E0E01B217B60E0A01BD
:10249200BE6F0E0EBF6FEAEC00F049CAE1FF4ACAF6
:1024A200E2FF00C0E6FFB70EBE6F0E0EBF6FEAEC92
:1024B20000F047CAE1FF48CAE2FF00C0E6FF12008F
:1024C2003ACA02F03BCA03F002C000F003C001F0B6
:1024D200024A032A00C0E9FF01C0EAFFEE5201E00E
:1024E200F3D70A013A51025C006E3B510358016E68
:0A24F200010E005E000E015A1200F8
:1024FC003ECA00F00A013E07005228E03ACAE9FF42
:10250C003BCAEAFFEE50000A0CE03ACAE9FF3BCAAC
:10251C00EAFF3CCAD9FF3DCADAFFEE50DE1801E1F2
:10252C000FD03ACAE9FF3BCAEAFF3CCAD9FF3DCA01
:10253C00DAFFDE50EE5C006E016A000E015A08D024
:10254C000A013A4B3B2B3C4B3D2BD2D7006A016A1C
:02255C0012006B
:10255E003ACAE9FF3BCAEAFFEE500A013C1905E10F
:10256E003ACA00F03BCA01F010D03ACA00F03BCA9A
:10257E0001F03A4B3B2B00C0E9FF01C0EAFFEECF62
:0C258E0000F00052E5E1006A016A120052
:10259A003ACAC9FFC7B002D00000FCD7C9CF00F0C1
:0225AA0012001D
:1025AC000A013A5303E00D0E3B6F02D0050E3B6F50
:1025BC003BCAA0FE3A5303E0310E3C6F02D0300E02
:1025CC003C6F3CCAA2FEAA0EC16F0E0EC26FEE0E7D
:1025DC00C36F050EC46FC2EC00F03A5303E0150E46
:1025EC003D6F02D0120E3D6F3DCAA4FE120E0E01BD
:1025FC00A66F0A013A5303E10C0E0E01A76F23C616
:10260C0084FE24C685FE25C682FE26C683FE27C60A
:10261C0080FE28C681FE0A01466B3F0E476F0A0EEC
:10262C00486F400E496F0A0E4A6F25DF466BFE0E4F
:10263C003F15476F3A5303E0010E3E6F01D03E6BDE
:10264C003E51471340CA48FABFDE100E0A01466FCE
:10265C00010E476F100E486FB7DED28449DCF20EC4
:10266C009A6F050E9B6F9C6B2D0E9D6F000E9E6FCF
:06267C0080EC04F01200E6
:102682003ACAC9FFC7B002D00000FCD7C9CF00F0D8
:02269200120034
:102694003ACA46FA3BCA47FA050E0A01486F51DCAA
:1026A40000C044FA01C045FA0150000A02E1000EDC
:1026B400001802E1006A25D0D90E0A01B06F190E84
:1026C400B16F40CAB2FA41CAB3FA42CAB4FA43CAB1
:1026D400B5FAF1EC00F044CAA2FA45CAA3FA3ACA20
:1026E400A4FA3BCAA5FA3CCAA6FA3DCAA7FA3ECA4E
:1026F400A8FA3FCAA9FA42CAAAFA43CAABFAAEEC8C
:0427040002F01200CD
:102708000A013A51390806E3300E3A5D03E3010E37
:08271800006E01D0006A1200FE
:102720000A01406B416B3ACA42FA3BCA43FA800E37
:102730003B19006E800E005C02E1000E3A5D0BE278
:10274000010E406F000E416F3A510008426F3BCAC4
:1027500043FA000E435742CA46FA43CA47FA3CCAF4
:1027600048FA3DCA49FA44DE060E3E6F000E3F6F3E
:10277000000E006E3F51005C02E13E51000819E27C
:102780003E513C25E16E3F513D21E26E010E3E5D22
:10279000006E000E3F59016E00503C25E96E01505D
:1027A0003D21EA6EEECFE6FF010E3E5F000E3F5B7D
:1027B000DFD73CCAE1FF3DCAE2FF200EE66E405182
:1027C00041111AE03E6B3F6B3E513C25E96E3F5193
:1027D0003D21EA6EEE50200A03E13E4B3F2BF4D739
:1027E000010E3E5F000E3F5B3E513C25E16E3F51C6
:0A27F0003D21E26E2D0EE66E120090
:1027FA000A013D6B030E3D5D0AE23D513B25E16E48
:10280A00000E3C21E26E200EE66E3D2BF3D73D51C1
:10281A003B25E16E000E3C21E26EE66A3D073D5122
:10282A003B253E6F000E3C213F6F0A0E046E3ACAEA
:10283A0000F0BCDD08C000F0300E00263ECAE1FF01
:10284A003FCAE2FF00C0E6FF0A0E046E3ACA00F071
:10285A00ADDD00C03AFA0050000A01E102D03D079E
:04286A00DED71200A3
:10286E003ACA04F03BCA05F004C0E9FF05C0EAFF0E
:10287E00EE5203E0044A052AF7D704C002F005C061
:10288E0003F0044A052A3CCA00F03DCA01F00A01D1
:10289E003C4B3D2B00C0E9FF01C0EAFF02C0E1FF47
:1028AE0003C0E2FFEECFE6FF02C0E9FF03C0EAFF7E
:1028BE00EE5201E0E2D73ACA00F03BCA01F0120034
:1028CE003ACA00F00032009E0032009E0032009E96
:1028DE000032009E980E0024F66E530EF76E000E18
:1028EE00F722000EF86E000EF8220900F5CF00F068
:1028FE003BCAE1FF3CCAE2FF00C0E6FF010E0A013F
:10290E003B25E16E000E3C21E26E0F0E3A15006E75
:10291E00980E0024F66E530EF76E000EF722000E80
:10292E00F86E000EF8220900F5CF00F000C0E6FFA9
:10293E00020E3B25E16E000E3C21E26EE66A1200AD
:10294E008294090E0C6E1C0E0D6E0D2EFED70C2EE3
:10295E00FCD70000030E0A013A6F18DE0A013A6B2B
:10296E0015DE0A013A6B12DE0801EE6BEF6B800E7C
:10297E00EF19006E800E005C02E1040EEE5D16E2B1
:10298E00F50EEE250A01326F020E0801EF210A0143
:10299E00336F30C93AFA6EDE32CAE1FF33CAE2FF54
:1029AE0000C0E6FF0801EE4BEF2BE1D7EE6BEF6BAD
:1029BE00800EEF19006E800E005C02E1040EEE5DDB
:1029CE0016E2F90EEE250A01326F020E0801EF2112
:1029DE000A01336F30C93AFA4DDE32CAE1FF33CA0B
:1029EE00E2FF00C0E6FF0801EE4BEF2BE1D7EE6BE6
:1029FE00EF6B800EEF19006E800E005C02E1040E8C
:102A0E00EE5D16E2010EEE250A01326F030E08018D
:102A1E00EF210A01336F30C93AFA2CDE32CAE1FFD8
:102A2E0033CAE2FF00C0E6FF0801EE4BEF2BE1D701
:102A3E00EE6BEF6B800EEF19006E800E005C02E104
:102A4E00040EEE5D16E2FD0EEE250A01326F020E49
:102A5E000801EF210A01336F30C93AFA0BDE32CA90
:102A6E00E1FF33CAE2FF00C0E6FF0801EE4BEF2B99
:102A7E00E1D7EE6BEF6B800EEF19006E800E005CEF
:102A8E0002E1400EEE5D16E2320EEE250A01326FC5
:102A9E00090E0801EF210A01336F30C93AFAEADD57
:102AAE0032CAE1FF33CAE2FF00C0E6FF0801EE4B77
:102ABE00EF2BE1D7EE6BEF6B800EEF19006E800EF1
:102ACE00005C02E1400EEE5D16E2760EEE250A0186
:102ADE00326F060E0801EF210A01336F30C93AFA40
:102AEE00C9DD32CAE1FF33CAE2FF00C0E6FF0801CA
:102AFE00EE4BEF2BE1D7EE6BEF6B800EEF19006E06
:102B0E00800E005C02E1400EEE5D16E2B60EEE2582
:102B1E000A01326F060E0801EF210A01336F30C928
:102B2E003AFAA8DD32CAE1FF33CAE2FF00C0E6FF7F
:102B3E000801EE4BEF2BE1D7EE6BEF6B800EEF192A
:102B4E00006E800E005C02E1400EEE5D16E2F00EAD
:102B5E00EE250A01326F080E0801EF210A01336FCC
:102B6E0030C93AFA87DD32CAE1FF33CAE2FF00C04C
:102B7E00E6FF0801EE4BEF2BE1D7EE6BEF6B800E0D
:102B8E00EF19006E800E005C02E1400EEE5D16E263
:102B9E00B20EEE250A01326F090E0801EF210A016D
:102BAE00336F30C93AFA66DD32CAE1FF33CAE2FF4B
:102BBE0000C0E6FF0801EE4BEF2BE1D7EE6BEF6B9B
:102BCE00800EEF19006E800E005C02E1400EEE5D8D
:102BDE0016E2720EEE250A01326F090E0801EF2180
:102BEE000A01336F30C93AFA45DD32CAE1FF33CA02
:102BFE00E2FF00C0E6FF0801EE4BEF2BE1D7EE6BD4
:102C0E00EF6B800EEF19006E800E005C02E1400E3D
:102C1E00EE5D16E2F20EEE250A01326F090E080184
:102C2E00EF210A01336F30C93AFA24DD32CAE1FFCF
:102C3E0033CAE2FF00C0E6FF0801EE4BEF2BE1D7EF
:102C4E008284090E0C6E1C0E0D6E0D2EFED70C2EF0
:062C5E00FCD7000012008B
:102C64000801EE6BEF6B800EEF19006E800E010A07
:102C7400005C02E1F40EEE5D0AE2FA0EEE25E16E6E
:102C8400060EEF21E26EE66AEE4BEF2BECD7FA0E5E
:102C94000A013A6F060E3B6F1E0E3C6F020E3D6F2B
:102CA400E4DD00C04BF60801EE6BEF6B800EEF190C
:102CB400006E800E005C02E1060EEE5D1BE2800EEB
:102CC400EE25E96E010EEF21EA6EEECF3AFA6B0EB5
:102CD4000A013B6F060E3C6FF8DDFA0E3A6F060EE2
:102CE4003B6F6B0E3C6F060E3D6FBFDD0801EE4B74
:102CF400EF2BDCD7FA0E0A013A6F060E3B6FE20E99
:102D04003C6F010E3D6FB1DDFA0E3A6F060E3B6F5C
:102D1400320E3C6F090E3D6FA8DDFA0E3A6F060EB7
:102D24003B6FAE0E3C6F010E3D6F9FDD0801EE6BF5
:102D3400EF6B800EEF19006E800E005C02E1040E52
:102D4400EE5D24E2F50EEE25E96E020EEF21EA6E49
:102D5400EECF3AFA6B0E0A013B6F060E3C6F4BDD69
:102D6400FA0E3A6F060E3B6F6B0E3C6F060E3D6F0C
:102D74007CDDFA0E3A6F060E3B6FAC0E3C6F010E13
:102D84003D6F73DD0801EE4BEF2BD3D7FA0E0A012A
:102D94003A6F060E3B6FBA0E3C6F010E3D6F65DD58
:102DA400FA0E3A6F060E3B6F61EC12F000C042FA65
:102DB40001C043FA140E3A6F030E3B6F820E3C6F50
:102DC400C30E3D6F830E3E6FC30E3F6FFA0E406F0E
:082DD400060E416F5DDC1200E8
:102DDC000801EE6BEF6B800EEF19006E800E010A8E
:102DEC00005C02E1F40EEE5D0AE2FA0EEE25E16EF5
:102DFC00060EEF21E26EE66AEE4BEF2BECD7FA0EE5
:102E0C000A013A6F060E3B6FA80E3C6F020E3D6F27
:102E1C0028DD84A20AD0FA0E3A6F060E3B6FA20E82
:102E2C003C6F020E3D6F1DDD09D0FA0E3A6F060E97
:102E3C003B6F900E3C6F020E3D6F13DD84A00AD0E9
:102E4C00FA0E3A6F060E3B6F9C0E3C6F020E3D6FF6
:102E5C0008DD09D0FA0E3A6F060E3B6F960E3C6FEA
:102E6C00020E3D6FFEDC81A00AD0FA0E3A6F060E00
:102E7C003B6FE90E3C6F020E3D6FF3DC09D0FA0E8E
:102E8C003A6F060E3B6FE30E3C6F020E3D6FE9DCB2
:102E9C0081A20AD0FA0E3A6F060E3B6FEF0E3C6F12
:102EAC00020E3D6FDEDC09D0FA0E3A6F060E3B6F58
:102EBC00DD0E3C6F020E3D6FD4DC81A40AD0FA0EFD
:102ECC003A6F060E3B6FD10E3C6F020E3D6FC9DCA4
:102EDC0009D0FA0E3A6F060E3B6FD70E3C6F020EFE
:102EEC003D6FBFDC81A60AD0FA0E3A6F060E3B6F1F
:102EFC008D0E3C6F020E3D6FB4DC09D0FA0E3A6FAA
:102F0C00060E3B6F660E3C6F020E3D6FAADCFA0E8E
:102F1C003A6F060E3B6F570E3C6F020E3D6FA1DCF5
:102F2C0072C63AFA73C63BFA6B0E3C6F060E3D6FD7
:102F3C0090EC13F0FA0E3A6F060E3B6F6B0E3C6F73
:102F4C00060E3D6F8EDCFA0E3A6F060E3B6F520E7C
:102F5C003C6F020E3D6F85DC67C63AFA68C63BFAD9
:102F6C006B0E3C6F060E3D6F90EC13F0FA0E3A6F41
:102F7C00060E3B6F6B0E3C6F060E3D6F72DCFA0E4D
:102F8C003A6F060E3B6F480E3C6F020E3D6F69DCCC
:102F9C0069C63AFA6AC63BFA6B0E3C6F060E3D6F79
:102FAC0090EC13F0FA0E3A6F060E3B6F6B0E3C6F03
:102FBC00060E3D6F56DCFA0E3A6F060E3B6F4D0E49
:102FCC003C6F020E3D6F4DDC74C63AFA75C63BFA87
:102FDC006B0E3C6F060E3D6F90EC13F0FA0E3A6FD1
:102FEC00060E3B6F6B0E3C6F060E3D6F3ADCFA0E15
:102FFC003A6F060E3B6F830E3C6F020E3D6F31DC59
:10300C00F6C63AFAF7C63BFA6B0E3C6F060E3D6FEE
:10301C0090EC13F0FA0E3A6F060E3B6F6B0E3C6F92
:10302C00060E3D6F1EDCFA0E3A6F060E3B6F880ED5
:10303C003C6F020E3D6F15DCF8C63AFAF9C63BFA46
:10304C006B0E3C6F060E3D6F90EC13F0FA0E3A6F60
:10305C00060E3B6F6B0E3C6F060E3D6F02DCFA0EDC
:10306C003A6F060E3B6F730E3C6F020E3D6F37ECE2
:10307C0014F0FA0E3A6F060E3B6F760E3C6F060E8E
:10308C003D6F37EC14F0FA0E3A6F060E3B6F690E7B
:10309C003C6F020E3D6F37EC14F0FA0E3A6F060ED1
:1030AC003B6FB60E3C6F060E3D6F37EC14F0FA0E0C
:1030BC003A6F060E3B6F6E0E3C6F020E3D6F37EC97
:1030CC0014F0FA0E3A6F060E3B6FF00E3C6F080EC2
:1030DC003D6F37EC14F0FA0E3A6F060E3B6F0F0E85
:1030EC003C6F030E3D6F37EC14F0FA0E3A6F060E80
:1030FC003B6FB20E3C6F090E3D6F37EC14F0FA0EBD
:10310C003A6F060E3B6F0A0E3C6F030E3D6F37ECA9
:10311C0014F0FA0E3A6F060E3B6F720E3C6F090EEE
:10312C003D6F37EC14F0FA0E3A6F060E3B6F050E3E
:10313C003C6F030E3D6F37EC14F0FA0E3A6F060E2F
:10314C003B6FF20E3C6F090E3D6F37EC14F0FA0E2C
:10315C003A6F060E3B6F61EC12F000C042FA01C0F0
:10316C0043FA140E3A6F030E3B6F820E3C6FC30E84
:10317C003D6F830E3E6FC30E3F6FFA0E406F060E0F
:08318C00416F4AEC13F0120040
:103194000900F5CFE6FF0006FBE10106F9E11200A4
:1031A400820E06013F6F260E406F3A0E416F0A0EE3
:1031B400426F9A0E356F250E366F3A0E376F0A0E30
:1031C400386F949A0A013251040A02E1948601D0BC
:1031D40094969488C66A3251C6123451C612335139
:1031E400C712345305E03551000AD8B4C78C03D054
:0A31F4003553D8A4C78CC68A120018
:1031FE000901306B316B0801EE6BEF6B800EEF192E
:10320E00006E800E005C02E1040EEE5D17E21B0EF6
:10321E0009013025E16E030E3121E26EF50E080133
:10322E00EE25E96E020EEF21EA6EEECFE6FF090102
:10323E00304B312B0801EE4BEF2BE0D7EE6BEF6BE3
:10324E00800EEF19006E800E005C02E1040EEE5D42
:10325E0017E21B0E09013025E16E030E3121E26EDD
:10326E00F90E0801EE25E96E020EEF21EA6EEECFA1
:10327E00E6FF0901304B312B0801EE4BEF2BE0D767
:10328E00EE6BEF6B800EEF19006E800E005C02E1AC
:10329E00040EEE5D17E21B0E09013025E16E030EE2
:1032AE003121E26E010E0801EE25E96E030EEF21CB
:1032BE00EA6EEECFE6FF0901304B312B0801EE4BE3
:1032CE00EF2BE0D7EE6BEF6B800EEF19006E800EDA
:1032DE00005C02E1040EEE5D17E21B0E09013025C3
:1032EE00E16E030E3121E26EFD0E0801EE25E96E50
:1032FE00020EEF21EA6EEECFE6FF0901304B312BC5
:10330E000801EE4BEF2BE0D7EE6BEF6B800EEF1953
:10331E00006E800E005C02E1400EEE5D17E21B0EA9
:10332E0009013025E16E030E3121E26E320E0801E5
:10333E00EE25E96E090EEF21EA6EEECFE6FF0901EA
:10334E00304B312B0801EE4BEF2BE0D7EE6BEF6BD2
:10335E00800EEF19006E800E005C02E1400EEE5DF5
:10336E0017E21B0E09013025E16E030E3121E26ECC
:10337E00760E0801EE25E96E060EEF21EA6EEECF0F
:10338E00E6FF0901304B312B0801EE4BEF2BE0D756
:10339E00EE6BEF6B800EEF19006E800E005C02E19B
:1033AE00400EEE5D17E21B0E09013025E16E030E95
:1033BE003121E26EB60E0801EE25E96E060EEF2102
:1033CE00EA6EEECFE6FF0901304B312B0801EE4BD2
:1033DE00EF2BE0D7EE6BEF6B800EEF19006E800EC9
:1033EE00005C02E1400EEE5D17E21B0E0901302576
:1033FE00E16E030E3121E26EF00E0801EE25E96E4C
:10340E00080EEF21EA6EEECFE6FF0901304B312BAD
:10341E000801EE4BEF2BE0D7EE6BEF6B800EEF1942
:10342E00006E800E005C02E1400EEE5D17E21B0E98
:10343E0009013025E16E030E3121E26EB20E080154
:10344E00EE25E96E090EEF21EA6EEECFE6FF0901D9
:10345E00304B312B0801EE4BEF2BE0D7EE6BEF6BC1
:10346E00800EEF19006E800E005C02E1400EEE5DE4
:10347E0017E21B0E09013025E16E030E3121E26EBB
:10348E00720E0801EE25E96E090EEF21EA6EEECFFF
:10349E00E6FF0901304B312B0801EE4BEF2BE0D745
:1034AE00EE6BEF6B800EEF19006E800E005C02E18A
:1034BE00400EEE5D17E21B0E09013025E16E030E84
:1034CE003121E26EF20E0801EE25E96E090EEF21B2
:1034DE00EA6EEECFE6FF0901304B312B0801EE4BC1
:1034EE00EF2BE0D78294190E0C6E580E0D6E0D2E2A
:1034FE00FED70C2EFCD70000060E0A013A6FCDEC5B
:10350E0012F0190E0C6E580E0D6E0D2EFED70C2EDF
:10351E00FCD700008284190E0C6E580E0D6E0D2E07
:10352E00FED70C2EFCD700008294190E0C6E580E8E
:10353E000D6E0D2EFED70C2EFCD70000010E0A01CB
:10354E003A6FCDEC12F00A013A6BCDEC12F0190E77
:10355E000C6E580E0D6E0D2EFED70C2EFCD70000E5
:10356E008284190E0C6E580E0D6E0D2EFED70C2E7B
:10357E00FCD700008294190E0C6E580E0D6E0D2E97
:10358E00FED70C2EFCD70000060E0A013A6FCDECCA
:10359E0012F0190E0C6E580E0D6E0D2EFED70C2E4F
:1035AE00FCD700008284190E0C6E580E0D6E0D2E77
:1035BE00FED70C2EFCD700008294290E0C6E940EB2
:1035CE000D6E0D2EFED70C2EFCD70000020E0A013A
:1035DE003A6FCDEC12F00A013A6BCDEC12F00A0103
:1035EE003A6BCDEC12F00801EE6BEF6B800EEF191B
:1035FE00006E800E005C02E1800EEE5D17E21B0E87
:10360E00EE25E96E030EEF21EA6EEECF3AFACDEC1F
:10361E0012F0090E0C6E1C0E0D6E0D2EFED70C2E1A
:10362E00FCD700000801EE4BEF2BE0D78284520E40
:10363E000C6E290E0D6E0D2EFED70C2EFCD7000033
:10364E0000008294190E0C6E580E0D6E0D2EFED7C4
:10365E000C2EFCD70000060E0A013A6FCDEC12F0CC
:10366E00190E0C6E580E0D6E0D2EFED70C2EFCD7AD
:10367E0000008284190E0C6E580E0D6E0D2EFED7A4
:10368E000C2EFCD700008294190E0C6E580E0D6E87
:10369E000D2EFED70C2EFCD70000020E0A013A6F3B
:1036AE00CDEC12F00A013A6BCDEC12F0800E0A014D
:1036BE003A6FCDEC12F0800E0801EE6F000EEF6F38
:1036CE00800EEF19006E800E010A005C02E1000E02
:1036DE00EE5D17E21B0EEE25E96E030EEF21EA6E8C
:1036EE00EECF3AFACDEC12F0090E0C6E1C0E0D6EEA
:1036FE000D2EFED70C2EFCD700000801EE4BEF2B43
:10370E00DFD78284520E0C6E290E0D6E0D2EFED753
:10371E000C2EFCD7000000008294190E0C6E580E71
:10372E000D6E0D2EFED70C2EFCD70000060E0A01D4
:10373E003A6FCDEC12F0190E0C6E580E0D6E0D2E5A
:10374E00FED70C2EFCD700008284190E0C6E580E7C
:10375E000D6E0D2EFED70C2EFCD700008294190E86
:10376E000C6E580E0D6E0D2EFED70C2EFCD70000D3
:10377E00020E0A013A6FCDEC12F0010E0A013A6FF9
:10378E00CDEC12F00A013A6BCDEC12F0000E0801EE
:10379E00EE6F010EEF6F800EEF19006E800E010AB4
:1037AE00005C02E1800EEE5D17E21B0EEE25E96E67
:1037BE00030EEF21EA6EEECF3AFACDEC12F0090EBF
:1037CE000C6E1C0E0D6E0D2EFED70C2EFCD70000AF
:1037DE000801EE4BEF2BDFD78284520E0C6E290EB2
:1037EE000D6E0D2EFED70C2EFCD70000000082941D
:1037FE00190E0C6E580E0D6E0D2EFED70C2EFCD71C
:10380E000000060E0A013A6FCDEC12F0190E0C6E86
:10381E00580E0D6E0D2EFED70C2EFCD70000828496
:10382E00190E0C6E580E0D6E0D2EFED70C2EFCD7EB
:10383E0000008294190E0C6E580E0D6E0D2EFED7D2
:10384E000C2EFCD70000020E0A013A6FCDEC12F0DE
:10385E00010E0A013A6FCDEC12F0800E0A013A6F9A
:10386E00CDEC12F0800E0801EE6F010EEF6F800EA0
:10387E00EF19006E800E010A005C02E1D00EEE5DC3
:10388E0017E21B0EEE25E96E030EEF21EA6EEECF68
:10389E003AFACDEC12F0090E0C6E1C0E0D6E0D2EBA
:1038AE00FED70C2EFCD700000801EE4BEF2BDFD716
:1038BE008284A30E0C6E550E0D6E0D2EFED70C2EA1
:0438CE00FCD7120011
:1038D2007EEC0FF00E01FE9BFD917EEC0FF00E01CF
:1038E200FE8BFDB101D0FDD7230E0A01B06F060E8B
:1038F200B16F32CAB2FA33CAB3FA060EB46F000E0F
:10390200B56F22EC01F0570EB06F060EB16F34CADC
:10391200B2FA35CAB3FA040EB46F000EB56F22ECD8
:1039220001F0E80EC16F0E0EC26FC36BC46BC2EC26
:1039320000F0EA0EC16F0E0EC26FAD0EC36F190E0C
:10394200C46FC2EC00F0EC0EC16F0E0EC26FAD0E72
:10395200C36F190EC46FC2EC00F07A0EC16F0F0E66
:10396200C26FC36BC46BC2EC00F0E40EC16F0E0EEB
:10397200C26FAE0EC36F190EC46FC2EC00F036CA2E
:083982003AFAD6EC12F0120033
:10398A00470E0A019A6F060E9B6F9C6B040E9D6F81
:10399A00000E9E6F80EC04F0020E0101D16F93ECD1
:1039AA0006F0CDC133FACEC134FACFC135FAD0C14F
:1039BA0036FA06015751000A1FE174EC0FF00A01AA
:1039CA0032513325016E000E3421026E000E35216C
:1039DA00036E000E3621046E0101D051045C08E129
:1039EA00CF51035C05E1CE51025C02E1CD51015C8D
:0E39FA0002E2006A03D0DDD7010E006E12005B
:103A0800A30E0A013215006E00C032FA00500E01F2
:043A1800D8131200AD
:103A1C00000E0A01331902E1000E321937E032CAE6
:103A2C00E9FF33CAEAFFEE5231E034CA3AFA35CA3A
:103A3C003BFA61EC12F000C03EFA32CA3AFA33CAD1
:103A4C003BFA34CA3CFA35CA3DFA7EEC12F0000E51
:103A5C00011802E1000E001805E132CA00F033CA69
:103A6C0001F016D0010E0A0132253A6F000E3321F7
:103A7C003B6F34CAE9FF35CAEAFFEECF3CFAAFEC34
:103A8C0012F000C032FA01C033FAC2D7006A016AE0
:023A9C00120016
:103A9E0032CAE9FF33CAEAFFEECF34FA000E0A014A
:103AAE00356F000E356F000E351902E1200E3419F8
:103ABE0007E0000E351902E1090E341901E003D0BA
:103ACE00324B332BE5D7366B376B386B396B000EB9
:103ADE00351902E12D0E341905E1384B392B324BD5
:103AEE00332B08D0000E351902E12B0E341902E1EA
:103AFE00324B332B32CAE9FF33CAEAFFEECF34FA28
:103B0E00000E356F000E356F34CA3AFA84EC13F09E
:103B1E00005219E036CA00F037CA01F00A0E046EE0
:103B2E00000E056E16EC06F0300E345D026E000EC1
:103B3E003559036E02500024366F03500120376F43
:103B4E00324B332BD7D73851391108E03651000894
:103B5E00006E37CA01F0000E015604D036CA00F0CE
:063B6E0037CA01F012004D
:103B740093EC06F006014C514D114E114F1102E029
:103B8400006A05D0010E0201476F010E006E12009B
:103B9400040E0101D16F93EC06F0CDC133FACEC10E
:103BA40034FACFC135FAD0C136FA000E006E0601E0
:103BB4004F1908E100504E1905E100504D1902E17A
:103BC4004C51000A1FE174EC0FF00A013251332505
:103BD400016E000E3421026E000E3521036E000EBC
:103BE4003621046E0101D051045C08E1CF51035C1D
:103BF40005E1CE51025C02E1CD51015C02E2006AB2
:0A3C040003D0D3D7010E006E1200AA
:103C0E00E0EC29F003011A6B0401EB6B816A836A05
:103C1E00856A8A6A8E6A926A936A946A956A040EB3
:103C2E00976E966A070EB46E0F0EC16E84928490D4
:103C3E0081908192819481960601726B736B676B92
:103C4E00686B696B6A6B746B756BF66BF76BF86B05
:103C5E00F96B0401EC6BF26A9D6AA06A9E90800E6D
:103C6E00CF6ECE6ACD9ECD8CCD82CD86CD98CDB881
:103C7E0002D0CD9A01D0CD8A9D80C00EF26ECD803D
:103C8E0094948284010E0A01326F336B346B010EF1
:103C9E00356FD2EC18F085B4DDD00801EE6BEF6B0A
:103CAE00800EEF19006E800E005C02E1400EEE5D9C
:103CBE000AE2320EEE25E16E090EEF21E26EE66AA1
:103CCE00EE4BEF2BEDD7EE6BEF6B800EEF19006E18
:103CDE00800E005C02E1400EEE5D0AE2760EEE25ED
:103CEE00E16E060EEF21E26EE66AEE4BEF2BEDD79C
:103CFE00EE6BEF6B800EEF19006E800E005C02E132
:103D0E00400EEE5D0AE2B60EEE25E16E060EEF21D6
:103D1E00E26EE66AEE4BEF2BEDD7EE6BEF6B800E9D
:103D2E00EF19006E800E005C02E1400EEE5D0AE2BD
:103D3E00F00EEE25E16E080EEF21E26EE66AEE4B16
:103D4E00EF2BEDD7EE6BEF6B800EEF19006E800E42
:103D5E00005C02E1400EEE5D0AE2B20EEE25E16E6F
:103D6E00090EEF21E26EE66AEE4BEF2BEDD7EE6B0E
:103D7E00EF6B800EEF19006E800E005C02E1400EBC
:103D8E00EE5D0AE2720EEE25E16E090EEF21E26E95
:103D9E00E66AEE4BEF2BEDD7EE6BEF6B800EEF1965
:103DAE00006E800E005C02E1400EEE5D0AE2F20E45
:103DBE00EE25E16E090EEF21E26EE66AEE4BEF2B79
:103DCE00EDD7320E0A013A6F090E3B6FF90E3C6FBA
:103DDE00000E3D6F37EC14F0760E3A6F060E3B6F09
:103DEE00050E3C6F010E3D6F37EC14F0B60E3A6FB8
:103DFE00060E3B6F1D0E3C6F010E3D6F37EC14F03F
:103E0E00F00E3A6F080E3B6F110E3C6F010E3D6FB8
:103E1E0037EC14F0B20E3A6F090E3B6F290E3C6F61
:103E2E00010E3D6F37EC14F0720E3A6F090E3B6FB8
:103E3E00740E3C6F010E3D6F37EC14F0F20E3A6FBC
:103E4E00090E3B6F680E3C6F010E3D6F37EC14F0A0
:103E5E00FFEC18F0A7EC14F0800E0A01326F010E81
:103E6E00336FF50E346F020E356F010E366F2ADD8D
:103E7E00050E326F83DD010E0A01326FBEDD0401C5
:103E8E00EC51010AD8A43DEF28F0EC6BEE0E0A01BE
:103E9E00326F040E336F420E346F010E356FB7DD85
:103EAE0000C0EEF501C0EFF5800E026E800E011817
:103EBE00025C02E10050000804E232EC16F0EEEC77
:103ECE0016F0EE0E0A01326F040E336F350E346F9C
:103EDE00010E356F9CDD00C0EEF501C0EFF5800ED2
:103EEE00026E800E0118025C02E10050000802E230
:103EFE00EEEC16F0EE0E0A01326F040E336F540E16
:103F0E00346F010E356F83DD00C0EEF501C0EFF5A5
:103F1E00800E026E800E0118025C02E10050000855
:103F2E00D8B09FD0EE0E0A01326F040E336F600EC2
:103F3E00346F010E356F6BDD00C0EEF501C0EFF58D
:103F4E00800E026E800E0118025C02E10050000825
:103F5E0007E28482FF0E0601726FFF0E736F81D02F
:103F6E000801EE6BEF6B800EEF19006E800E010AEA
:103F7E00005C02E1000EEE5D14E2EE0EEE25E96E3F
:103F8E00040EEF21EA6EEE503D0A08E1EEC8EEF5A2
:103F9E00EFC8EFF5000EEE6F010EEF6FEE4BEF2B4D
:103FAE00E2D70401ED6B0801EE6BEF6B800EEF199B
:103FBE00006E800E005C02E1070EEE5D0AE26B0EF3
:103FCE00EE25E16E060EEF21E26EE66AEE4BEF2B6A
:103FDE00EDD7010E0501EE250801EE6F000E05016D
:103FEE00EF210801EF6F040E0501EE25016E000EA4
:103FFE00EF21026E800E0801EF19006E800E02187E
:10400E00005C02E10150EE5D18E26B0EE16E060EF1
:10401E00E26E0401ED51E126D8B0E22AEE0E08015F
:10402E00EE25E96E040EEF21EA6EEECFE6FF0401F7
:10403E00ED2B0801EE4BEF2BD6D76B0E0A01326F2C
:10404E00060E336F25DD00C072F601C073F6800ECA
:10405E00026E800E0118025C02E100500008D8A02A
:10406E0084820A01EE0E326F040E336FEC0E346F43
:10407E00000E356FCCDC00C0EEF501C0EFF5800E02
:10408E00026E800E0118025C02E10050000804E28C
:10409E0084920601726B736BEE0E0A01326F040E80
:1040AE00336F580E346F000E356FB1DC00C0EEF575
:1040BE0001C0EFF5800E026E800E0118025C02E167
:1040CE0000500008D8B09FD0EE0E0A01326F040ED9
:1040DE00336F500E346F000E356F99DC00C0EEF565
:1040EE0001C0EFF5800E026E800E0118025C02E137
:1040FE000050000807E28480FF0E0601676FFF0E76
:10410E00686F81D00801EE6BEF6B800EEF19006EB9
:10411E00800E010A005C02E1000EEE5D14E2EE0E6E
:10412E00EE25E96E040EEF21EA6EEE503D0A08E12F
:10413E00EEC8EEF5EFC8EFF5000EEE6F010EEF6F65
:10414E00EE4BEF2BE2D70401ED6B0801EE6BEF6B3C
:10415E00800EEF19006E800E005C02E1070EEE5D20
:10416E000AE26B0EEE25E16E060EEF21E26EE66AB6
:10417E00EE4BEF2BEDD7010E0501EE250801EE6F8C
:10418E00000E0501EF210801EF6F040E0501EE256B
:10419E00016E000EEF21026E800E0801EF19006E07
:1041AE00800E0218005C02E10150EE5D18E26B0E0B
:1041BE00E16E060EE26E0401ED51E126D8B0E22A60
:1041CE00EE0E0801EE25E96E040EEF21EA6EEECF3B
:1041DE00E6FF0401ED2B0801EE4BEF2BD6D76B0E4D
:1041EE000A01326F060E336F53DC00C067F601C052
:1041FE0068F6800E026E800E0118025C02E100501D
:10420E000008D8A084800A01EE0E326F040E336FC0
:10421E00640E346F000E356F0EEC1DF000C0EEF51F
:10422E0001C0EFF5800E026E800E0118025C02E1F5
:10423E000050000804E284900601676B686BEE0E76
:10424E000A01326F040E336F790E346F000E356F24
:10425E000EEC1DF000C0EEF501C0EFF5800E026E03
:10426E00800E0118025C02E100500008D8B0A1D007
:10427E00EE0E0A01326F040E336F710E346F000EA4
:10428E00356F0EEC1DF000C0EEF501C0EFF5800E9F
:10429E00026E800E0118025C02E10050000807E277
:1042AE008180FF0E0601696FFF0E6A6F82D00801D2
:1042BE00EE6BEF6B800EEF19006E800E010A005C44
:1042CE0002E1000EEE5D14E2EE0EEE25E96E040E36
:1042DE00EF21EA6EEE503D0A08E1EEC8EEF5EFC8AA
:1042EE00EFF5000EEE6F010EEF6FEE4BEF2BE2D7F8
:1042FE000401ED6B0801EE6BEF6B800EEF19006E93
:10430E00800E005C02E1070EEE5D0AE26B0EEE25FA
:10431E00E16E060EEF21E26EE66AEE4BEF2BEDD765
:10432E00010E0501EE250801EE6F000E0501EF21CD
:10433E000801EF6F040E0501EE25016E000EEF2150
:10434E00026E800E0801EF19006E800E0218005CDE
:10435E0002E10150EE5D18E26B0EE16E060EE26EAA
:10436E000401ED51E126D8B0E22AEE0E0801EE2549
:10437E00E96E040EEF21EA6EEECFE6FF0401ED2B9F
:10438E000801EE4BEF2BD6D76B0E0A01326F060EDD
:10439E00336F4FEC1DF000C069F601C06AF6800E57
:1043AE00026E800E0118025C02E100500008D8A0D7
:1043BE0081800A01EE0E326F040E336F220E346FBF
:1043CE00000E356F0EEC1DF000C0EEF501C0EFF5DE
:1043DE00800E026E800E0118025C02E10050000891
:1043EE0004E281900601696B6A6BEE0E0A01326F70
:1043FE00040E336F160E346F000E356F0EEC1DF07B
:10440E0000C0EEF501C0EFF5800E026E800E0118B1
:10441E00025C02E100500008D8B0A1D0EE0E0A01F5
:10442E00326F040E336F2F0E346F000E356F0EEC9D
:10443E001DF000C0EEF501C0EFF5800E026E800E8D
:10444E000118025C02E10050000807E28182FF0EB3
:10445E000601746FFF0E756F82D00801EE6BEF6B65
:10446E00800EEF19006E800E010A005C02E1000E54
:10447E00EE5D14E2EE0EEE25E96E040EEF21EA6E0D
:10448E00EE503D0A08E1EEC8EEF5EFC8EFF5000E6E
:10449E00EE6F010EEF6FEE4BEF2BE2D70401ED6BDB
:1044AE000801EE6BEF6B800EEF19006E800E005C54
:1044BE0002E1070EEE5D0AE26B0EEE25E16E060ED0
:1044CE00EF21E26EE66AEE4BEF2BEDD7010E050102
:1044DE00EE250801EE6F000E0501EF210801EF6FCA
:1044EE00040E0501EE25016E000EEF21026E800E08
:1044FE000801EF19006E800E0218005C02E10150F7
:10450E00EE5D18E26B0EE16E060EE26E0401ED51E9
:10451E00E126D8B0E22AEE0E0801EE25E96E040E71
:10452E00EF21EA6EEECFE6FF0401ED2B0801EE4B14
:10453E00EF2BD6D76B0E0A01326F060E336F4FEC90
:10454E001DF000C074F601C075F6800E026E800E6E
:10455E000118025C02E100500008D8A081820A0115
:10456E00EE0E326F040E336F430E346F000E356F46
:10457E000EEC1DF000C0EEF501C0EFF5800E026EE0
:10458E00800E0118025C02E10050000804E28192E4
:10459E000601746B756BEE0E0A01326F040E336FEB
:1045AE00370E346F000E356F0EEC1DF000C0EEF5B9
:1045BE0001C0EFF5800E026E800E0118025C02E162
:1045CE0000500008D8B0A1D0EE0E0A01326F040ED2
:1045DE00336F850E346F000E356F0EEC1DF000C07C
:1045EE00EEF501C0EFF5800E026E800E0118025C32
:1045FE0002E10050000807E28184FF0E0601F66F0B
:10460E00FF0EF76F82D00801EE6BEF6B800EEF1985
:10461E00006E800E010A005C02E1000EEE5D14E2F7
:10462E00EE0EEE25E96E040EEF21EA6EEE503D0A17
:10463E0008E1EEC8EEF5EFC8EFF5000EEE6F010ED5
:10464E00EF6FEE4BEF2BE2D70401ED6B0801EE6B33
:10465E00EF6B800EEF19006E800E005C02E1070E0C
:10466E00EE5D0AE26B0EEE25E16E060EEF21E26EB6
:10467E00E66AEE4BEF2BEDD7010E0501EE25080194
:10468E00EE6F000E0501EF210801EF6F040E05011C
:10469E00EE25016E000EEF21026E800E0801EF195D
:1046AE00006E800E0218005C02E10150EE5D18E211
:1046BE006B0EE16E060EE26E0401ED51E126D8B0EE
:1046CE00E22AEE0E0801EE25E96E040EEF21EA6EE7
:1046DE00EECFE6FF0401ED2B0801EE4BEF2BD6D704
:1046EE006B0E0A01326F060E336F4FEC1DF000C0D9
:1046FE00F6F601C0F7F6800E026E800E0118025C0F
:10470E0002E100500008D8A081840A01EE0E326F3B
:10471E00040E336FB90E346F000E356F0EEC1DF0B4
:10472E0000C0EEF501C0EFF5800E026E800E01188E
:10473E00025C02E10050000804E281940601F66B6F
:10474E00F76BEE0E0A01326F040E336FAD0E346F3F
:10475E00000E356F0EEC1DF000C0EEF501C0EFF54A
:10476E00800E026E800E0118025C02E100500008FD
:10477E00D8B0A1D0EE0E0A01326F040E336FC60E02
:10478E00346F000E356F0EEC1DF000C0EEF501C05B
:10479E00EFF5800E026E800E0118025C02E10050F1
:1047AE00000807E28186FF0E0601F86FFF0EF96F13
:1047BE0082D00801EE6BEF6B800EEF19006E800E4B
:1047CE00010A005C02E1000EEE5D14E2EE0EEE2533
:1047DE00E96E040EEF21EA6EEE503D0A08E1EEC8D6
:1047EE00EEF5EFC8EFF5000EEE6F010EEF6FEE4B2C
:1047FE00EF2BE2D70401ED6B0801EE6BEF6B800E31
:10480E00EF19006E800E005C02E1070EEE5D0AE20B
:10481E006B0EEE25E16E060EEF21E26EE66AEE4BB2
:10482E00EF2BEDD7010E0501EE250801EE6F000E00
:10483E000501EF210801EF6F040E0501EE25016E53
:10484E00000EEF21026E800E0801EF19006E800E31
:10485E000218005C02E10150EE5D18E26B0EE16E93
:10486E00060EE26E0401ED51E126D8B0E22AEE0EFC
:10487E000801EE25E96E040EEF21EA6EEECFE6FF9B
:10488E000401ED2B0801EE4BEF2BD6D76B0E0A0170
:10489E00326F060E336F4FEC1DF000C0F8F601C0FC
:1048AE00F9F6800E026E800E0118025C02E10050D5
:1048BE000008D8A081860A01EE0E326F040E336F07
:1048CE00DF0E346F000E356F0EEC1DF000C0EEF5EE
:1048DE0001C0EFF5800E026E800E0118025C02E13F
:1048EE000050000804E281960601F86BF96BEE0E9B
:1048FE000A01326F040E336FCE0E346F000E356F19
:10490E000EEC1DF000C0EEF501C0EFF5800E026E4C
:10491E00800E0118025C02E100500008D8B070D081
:10492E000801EE6BEF6B800EEF19006E800E010A20
:10493E00005C02E1000EEE5D14E2EE0EEE25E96E75
:10494E00040EEF21EA6EEE503D0A08E1EEC8EEF5D8
:10495E00EFC8EFF5000EEE6F010EEF6FEE4BEF2B83
:10496E00E2D70401ED6B0801EE6BEF6B800EEF19D1
:10497E00006E800E005C02E13F0EEE5D0AE2320E2A
:10498E00EE25E16E090EEF21E26EE66AEE4BEF2B9D
:10499E00EDD7010E0501EE250801EE6F000E0501A3
:1049AE00EF210801EF6F800EEF19006E800E0301EC
:1049BE001919005C03E118510801EE5D1FE2320E79
:1049CE00E16E090EE26E0401ED51E126D8B0E22A45
:1049DE00EE0E0801EE25E96E040EEF21EA6EEECF23
:1049EE00E6FF0401ED2BED513F0A04E118C3EEF88A
:1049FE0019C3EFF80801EE4BEF2BD5D7FFEC18F0EB
:104A0E00EE0E0A01326F040E336F8D0E346F000EF0
:104A1E00356F0EEC1DF000C0EEF501C0EFF5800E07
:104A2E00026E800E0118025C02E100500008D8B040
:104A3E0070D00801EE6BEF6B800EEF19006E800EDA
:104A4E00010A005C02E1000EEE5D14E2EE0EEE25B0
:104A5E00E96E040EEF21EA6EEE503D0A08E1EEC853
:104A6E00EEF5EFC8EFF5000EEE6F010EEF6FEE4BA9
:104A7E00EF2BE2D70401ED6B0801EE6BEF6B800EAE
:104A8E00EF19006E800E005C02E13F0EEE5D0AE251
:104A9E00760EEE25E16E060EEF21E26EE66AEE4B25
:104AAE00EF2BEDD7010E0501EE250801EE6F000E7E
:104ABE000501EF210801EF6F800EEF19006E800ED9
:104ACE0003011919005C03E118510801EE5D1FE2A4
:104ADE00760EE16E060EE26E0401ED51E126D8B0BF
:104AEE00E22AEE0E0801EE25E96E040EEF21EA6EC3
:104AFE00EECFE6FF0401ED2BED513F0A04E118C3A2
:104B0E00EEF819C3EFF80801EE4BEF2BD5D7FFECFB
:104B1E0018F0EE0E0A01326F040E336F950E346FDD
:104B2E00000E356F0EEC1DF000C0EEF501C0EFF576
:104B3E00800E026E800E0118025C02E10050000829
:104B4E00D8B070D00801EE6BEF6B800EEF19006ECF
:104B5E00800E010A005C02E1000EEE5D14E2EE0E24
:104B6E00EE25E96E040EEF21EA6EEE503D0A08E1E5
:104B7E00EEC8EEF5EFC8EFF5000EEE6F010EEF6F1B
:104B8E00EE4BEF2BE2D70401ED6B0801EE6BEF6BF2
:104B9E00800EEF19006E800E005C02E13F0EEE5D9E
:104BAE000AE2B60EEE25E16E060EEF21E26EE66A21
:104BBE00EE4BEF2BEDD7010E0501EE250801EE6F42
:104BCE00000E0501EF210801EF6F800EEF19006E48
:104BDE00800E03011919005C03E118510801EE5D06
:104BEE001FE2B60EE16E060EE26E0401ED51E126F5
:104BFE00D8B0E22AEE0E0801EE25E96E040EEF2182
:104C0E00EA6EEECFE6FF0401ED2BED513F0A04E113
:104C1E0018C3EEF819C3EFF80801EE4BEF2BD5D7FA
:104C2E00FFEC18F0EE0E0A01326F040E336FA50E74
:104C3E00346F000E356F0EEC1DF000C0EEF501C0A6
:104C4E00EFF5800E026E800E0118025C02E100503C
:104C5E000008D8B070D00801EE6BEF6B800EEF1924
:104C6E00006E800E010A005C02E1000EEE5D14E2A1
:104C7E00EE0EEE25E96E040EEF21EA6EEE503D0AC1
:104C8E0008E1EEC8EEF5EFC8EFF5000EEE6F010E7F
:104C9E00EF6FEE4BEF2BE2D70401ED6B0801EE6BDD
:104CAE00EF6B800EEF19006E800E005C02E13F0E7E
:104CBE00EE5D0AE2F00EEE25E16E080EEF21E26ED9
:104CCE00E66AEE4BEF2BEDD7010E0501EE2508013E
:104CDE00EE6F000E0501EF210801EF6F800EEF1948
:104CEE00006E800E03011919005C03E118510801D2
:104CFE00EE5D1FE2F00EE16E080EE26E0401ED5164
:104D0E00E126D8B0E22AEE0E0801EE25E96E040E79
:104D1E00EF21EA6EEECFE6FF0401ED2BED513F0AD7
:104D2E0004E118C3EEF819C3EFF80801EE4BEF2BB0
:104D3E00D5D7FFEC18F0EE0E0A01326F040E336F6A
:104D4E009D0E346F000E356F0EEC1DF000C0EEF5AB
:104D5E0001C0EFF5800E026E800E0118025C02E1BA
:104D6E0000500008D8B070D00801EE6BEF6B800ECB
:104D7E00EF19006E800E010A005C02E1000EEE5D7E
:104D8E0014E2EE0EEE25E96E040EEF21EA6EEE5001
:104D9E003D0A08E1EEC8EEF5EFC8EFF5000EEE6F36
:104DAE00010EEF6FEE4BEF2BE2D70401ED6B080116
:104DBE00EE6BEF6B800EEF19006E800E005C02E161
:104DCE003F0EEE5D0AE2B20EEE25E16E090EEF2108
:104DDE00E26EE66AEE4BEF2BEDD7010E0501EE25E6
:104DEE000801EE6F000E0501EF210801EF6F800E36
:104DFE00EF19006E800E03011919005C03E11851C2
:104E0E000801EE5D1FE2B20EE16E090EE26E0401C4
:104E1E00ED51E126D8B0E22AEE0E0801EE25E96E3C
:104E2E00040EEF21EA6EEECFE6FF0401ED2BED51FD
:104E3E003F0A04E118C3EEF819C3EFF80801EE4B70
:104E4E00EF2BD5D7FFEC18F0EE0E0A01326F040EE1
:104E5E00336FDA0E346F010E356F0EEC1DF000C09D
:104E6E00EEF501C0EFF5800E026E800E0118025CA9
:104E7E0002E100500008D8B070D00801EE6BEF6B65
:104E8E00800EEF19006E800E010A005C02E1000E2A
:104E9E00EE5D14E2EE0EEE25E96E040EEF21EA6EE3
:104EAE00EE503D0A08E1EEC8EEF5EFC8EFF5000E44
:104EBE00EE6F010EEF6FEE4BEF2BE2D70401ED6BB1
:104ECE000801EE6BEF6B800EEF19006E800E005C2A
:104EDE0002E13F0EEE5D0AE2720EEE25E16E090E64
:104EEE00EF21E26EE66AEE4BEF2BEDD7010E0501D8
:104EFE00EE250801EE6F000E0501EF210801EF6FA0
:104F0E00800EEF19006E800E03011919005C03E18B
:104F1E0018510801EE5D1FE2720EE16E090EE26E8F
:104F2E000401ED51E126D8B0E22AEE0E0801EE257D
:104F3E00E96E040EEF21EA6EEECFE6FF0401ED2BD3
:104F4E00ED513F0A04E118C3EEF819C3EFF808015A
:104F5E00EE4BEF2BD5D7FFEC18F0EE0E0A01326FA9
:104F6E00040E336FD20E346F010E356F0EEC1DF042
:104F7E0000C0EEF501C0EFF5800E026E800E011836
:104F8E00025C02E100500008D8B070D00801EE6B50
:104F9E00EF6B800EEF19006E800E010A005C02E1CD
:104FAE00000EEE5D14E2EE0EEE25E96E040EEF211C
:104FBE00EA6EEE503D0A08E1EEC8EEF5EFC8EFF5E9
:104FCE00000EEE6F010EEF6FEE4BEF2BE2D70401EA
:104FDE00ED6B0801EE6BEF6B800EEF19006E800E1D
:104FEE00005C02E13F0EEE5D0AE2F20EEE25E16E8E
:104FFE00090EEF21E26EE66AEE4BEF2BEDD7010EB6
:10500E000501EE250801EE6F000E0501EF210801E6
:10501E00EF6F800EEF19006E800E03011919005C00
:10502E0003E118510801EE5D1FE2F20EE16E090E6A
:10503E00E26E0401ED51E126D8B0E22AEE0E08012F
:10504E00EE25E96E040EEF21EA6EEECFE6FF0401C7
:10505E00ED2BED513F0A04E118C3EEF819C3EFF83A
:10506E000801EE4BEF2BD5D7FFEC18F074EC0FF0D8
:10507E00BAEC1DF0005205E0050E0A01326FCAECC3
:08508E001DF046EF1FF0FFD7F3
:1053C00010EE16F0020E006E040E016E960EF66ED2
:0E53D000500EF76E000EF86ECAEC18F01200C8
:0C50960052656C61792B52342B4F4E0098
:0D50A20052656C61792B52332B4F4646004E
:0850AF0074696D653D2D3100AF
:0C50B70052656C61792B52352B4F4E0076
:0D50C30052656C61792B52342B4F4646002C
:0850D00074696D653D2D31008E
:0C50D80052656C61792B52322B4F4E0058
:0D50E40052656C61792B52322B4F4646000D
:0850F10074696D653D2D31006D
:0C50F90052656C61792B52332B4F4E0036
:0851050074696D653D2D310058
:08510D006E65772B52313D0065
:085115006E65772B52323D005C
:08511D006E65772B52343D0052
:085125006E65772B52333D004B
:0C512D0052656C61792B52362B4F4E00FE
:0D51390052656C61792B52352B4F464600B4
:0851460074696D653D2D310017
:10514E006E65772B6D6F64756C655F6E616D653D19
:01515E000050
:0D515F0052656C61792B52362B4F4646008D
:0D516C0052656C61792B52312B4F46460085
:0C517900446576696365206E616D650019
:0C51850052656C617931206E616D65002F
:0C51910052656C617933206E616D650021
:0C519D0052656C617932206E616D650016
:0C51A90052656C617934206E616D650008
:0D51B5007570646174655F52656C6179000E
:1051C2007570646174655F616C6C5F7461626C655B
:0251D200730068
:0C51D40052656C61792B52312B4F4E005C
:0851E00074696D653D2D31007D
:0C51E80052656C617936206E616D6500C7
:0C51F40052656C617935206E616D6500BC
:06520000000000000001A7
:055206000000000000A3
:06520B00FFFFFFFFFFFFA3
:01521100009C
:095212000001080006040001007F
:02521B00000091
:08521D00000108000604000076
:075225000000000000000082
:02522C002E0052
:0C522E00266D6F64756C655F69703D0053
:10523A00266D6F64756C655F66756E633D52656C4D
:03524A0061790087
:04524D00000000005D
:01525100005C
:085252006E65772B52363D001A
:08525A006E65772B52353D0013
:105262002668775F7665723D3031266D6F64756CA6
:10527200655F696E666F3D52656C617920636F6E22
:1052820074726F6C2028362072656C617929266DE4
:0C5292006F64756C655F6E616D653D00BA
:10529E006B65795F69643D64696E6B6126746162EA
:1052AE006C653D44657669636573266D6F64756CD8
:0752BE00655F6D61633D00B7
:0152C50000E8
:0152C60000E7
:0152C70000E6
:0552C8003B52332B00F6
:0552CD003B52342B00F0
:0552D2003B52322B00ED
:0F52D70072656C61795F74696D653D52312B00B2
:0352E6003026006F
:0552E9003B52322B00D6
:0552EE003B52332B00D0
:1052F3002672656C61795F6E616D653D52312B007D
:055303003B52352B00B8
:055308003B52362B00B2
:03530D0031260046
:06531000303B52322B007D
:06531600303B52332B0076
:06531C00313B52332B006F
:06532200313B52322B006A
:105328006B65795F69643D64696E6B61267461625F
:105338006C653D52656C61792672656C61795F7345
:09534800746174653D52312B00C3
:06535100313B52362B0037
:06535700303B52362B0032
:06535D00303B52352B002D
:06536300303B52342B0028
:06536900313B52342B0021
:06536F00313B52352B001A
:045375000000000034
:045379000000000030
:04537D00000000002C
:045381000000000028
:055385003B52362B0035
:05538A003B52352B0031
:05538F003B52342B002D
:045394000000000015
:105398003031323334353637383941424344454663
:0C53A800010106001223344500008000C3
:0653B40063825363350122
:0553BA003703010306AA
:020000040001F9
:06FFF800A0F4C4FFF8F7BD
:00000001FF
